{
    "contractName": "CertificateManagement",
    "abi": [
        {
            "inputs": [],
            "stateMutability": "nonpayable",
            "type": "constructor"
        },
        {
            "anonymous": false,
            "inputs": [
                {
                    "indexed": false,
                    "internalType": "uint256",
                    "name": "certificateId",
                    "type": "uint256"
                },
                {
                    "indexed": false,
                    "internalType": "string",
                    "name": "nameCertificate",
                    "type": "string"
                },
                {
                    "indexed": false,
                    "internalType": "string",
                    "name": "nameStudent",
                    "type": "string"
                }
            ],
            "name": "savedCertificate",
            "type": "event"
        },
        {
            "anonymous": false,
            "inputs": [
                {
                    "indexed": false,
                    "internalType": "string",
                    "name": "idStudent",
                    "type": "string"
                },
                {
                    "indexed": false,
                    "internalType": "string",
                    "name": "name",
                    "type": "string"
                }
            ],
            "name": "savedStudent",
            "type": "event"
        },
        {
            "inputs": [
                {
                    "internalType": "uint256",
                    "name": "_idCertificate",
                    "type": "uint256"
                },
                {
                    "internalType": "string",
                    "name": "_nameCertificate",
                    "type": "string"
                },
                {
                    "internalType": "string",
                    "name": "_nameStudent",
                    "type": "string"
                },
                {
                    "internalType": "string",
                    "name": "_releaseDate",
                    "type": "string"
                },
                {
                    "internalType": "string",
                    "name": "_expirationDate",
                    "type": "string"
                },
                {
                    "internalType": "string",
                    "name": "_issuer",
                    "type": "string"
                },
                {
                    "internalType": "string",
                    "name": "_idStudent",
                    "type": "string"
                },
                {
                    "internalType": "string",
                    "name": "_grade",
                    "type": "string"
                }
            ],
            "name": "addCertificate",
            "outputs": [],
            "stateMutability": "nonpayable",
            "type": "function"
        },
        {
            "inputs": [
                {
                    "internalType": "string",
                    "name": "_idStudent",
                    "type": "string"
                },
                {
                    "internalType": "string",
                    "name": "_name",
                    "type": "string"
                },
                {
                    "internalType": "string",
                    "name": "_majors",
                    "type": "string"
                },
                {
                    "internalType": "string",
                    "name": "_sex",
                    "type": "string"
                },
                {
                    "internalType": "string",
                    "name": "_birth",
                    "type": "string"
                },
                {
                    "internalType": "string",
                    "name": "_email",
                    "type": "string"
                }
            ],
            "name": "addStudent",
            "outputs": [],
            "stateMutability": "nonpayable",
            "type": "function"
        },
        {
            "inputs": [
                {
                    "internalType": "uint256",
                    "name": "_idCertificate",
                    "type": "uint256"
                }
            ],
            "name": "getCertificateById",
            "outputs": [
                {
                    "internalType": "uint256",
                    "name": "",
                    "type": "uint256"
                },
                {
                    "internalType": "string",
                    "name": "",
                    "type": "string"
                },
                {
                    "internalType": "string",
                    "name": "",
                    "type": "string"
                },
                {
                    "internalType": "string",
                    "name": "",
                    "type": "string"
                },
                {
                    "internalType": "string",
                    "name": "",
                    "type": "string"
                },
                {
                    "internalType": "string",
                    "name": "",
                    "type": "string"
                },
                {
                    "internalType": "string",
                    "name": "",
                    "type": "string"
                }
            ],
            "stateMutability": "view",
            "type": "function"
        },
        {
            "inputs": [
                {
                    "internalType": "string",
                    "name": "_email",
                    "type": "string"
                }
            ],
            "name": "getStudentByEmail",
            "outputs": [
                {
                    "internalType": "string",
                    "name": "",
                    "type": "string"
                },
                {
                    "internalType": "string",
                    "name": "",
                    "type": "string"
                },
                {
                    "internalType": "string",
                    "name": "",
                    "type": "string"
                },
                {
                    "internalType": "string",
                    "name": "",
                    "type": "string"
                },
                {
                    "internalType": "string",
                    "name": "",
                    "type": "string"
                },
                {
                    "internalType": "uint256[]",
                    "name": "",
                    "type": "uint256[]"
                }
            ],
            "stateMutability": "view",
            "type": "function"
        },
        {
            "inputs": [
                {
                    "internalType": "string",
                    "name": "_idStudent",
                    "type": "string"
                }
            ],
            "name": "getStudentCertificates",
            "outputs": [
                {
                    "components": [
                        {
                            "internalType": "uint256",
                            "name": "idCertificate",
                            "type": "uint256"
                        },
                        {
                            "internalType": "string",
                            "name": "nameCertificate",
                            "type": "string"
                        },
                        {
                            "internalType": "string",
                            "name": "nameStudent",
                            "type": "string"
                        },
                        {
                            "internalType": "string",
                            "name": "releaseDate",
                            "type": "string"
                        },
                        {
                            "internalType": "string",
                            "name": "expirationDate",
                            "type": "string"
                        },
                        {
                            "internalType": "string",
                            "name": "issuer",
                            "type": "string"
                        },
                        {
                            "internalType": "string",
                            "name": "grade",
                            "type": "string"
                        }
                    ],
                    "internalType": "struct CertificateManagement.Certificate[]",
                    "name": "",
                    "type": "tuple[]"
                }
            ],
            "stateMutability": "view",
            "type": "function"
        }
    ],
    "bytecode": "608060405234801561001057600080fd5b50600080546001600160a01b03191633179055611a44806100326000396000f3fe608060405234801561001057600080fd5b50600436106100575760003560e01c8063388e6dca1461005c5780639d735caf14610071578063a11d211b146100a0578063ade3de2c146100b3578063cc1b3db9146100d3575b600080fd5b61006f61006a3660046112d9565b6100f8565b005b61008461007f3660046113fe565b6102eb565b6040516100979796959493929190611467565b60405180910390f35b61006f6100ae3660046114f0565b61068c565b6100c66100c13660046115e5565b6109c1565b6040516100979190611622565b6100e66100e13660046115e5565b610e6f565b6040516100979695949392919061171f565b6000546001600160a01b0316331461012b5760405162461bcd60e51b8152600401610122906117c7565b60405180910390fd5b600060018360405161013d9190611809565b908152604051908190036020019020805461015790611825565b90501161019f5760405162461bcd60e51b815260206004820152601660248201527514dd1d59195b9d08191bd95cc81b9bdd08195e1a5cdd60521b6044820152606401610122565b6040805160e08101825289815260208082018a81528284018a9052606083018990526080830188905260a0830187905260c0830185905260008c8152600290925292902081518155915190919060018201906101fb90826118ae565b506040820151600282019061021090826118ae565b506060820151600382019061022590826118ae565b506080820151600482019061023a90826118ae565b5060a0820151600582019061024f90826118ae565b5060c0820151600682019061026490826118ae565b50905050600060018360405161027a9190611809565b908152604051908190036020908101822060068101805460018101825560009182529290209091018b905591507f62ed9fe30837443ee2dc83410c5f364bcc8b071289ac2c6c46110f7d18918e05906102d8908b908b908b9061196e565b60405180910390a1505050505050505050565b60006060806060806060806000600260008a81526020019081526020016000209050806000015481600101826002018360030184600401856005018660060185805461033690611825565b80601f016020809104026020016040519081016040528092919081815260200182805461036290611825565b80156103af5780601f10610384576101008083540402835291602001916103af565b820191906000526020600020905b81548152906001019060200180831161039257829003601f168201915b505050505095508480546103c290611825565b80601f01602080910402602001604051908101604052809291908181526020018280546103ee90611825565b801561043b5780601f106104105761010080835404028352916020019161043b565b820191906000526020600020905b81548152906001019060200180831161041e57829003601f168201915b5050505050945083805461044e90611825565b80601f016020809104026020016040519081016040528092919081815260200182805461047a90611825565b80156104c75780601f1061049c576101008083540402835291602001916104c7565b820191906000526020600020905b8154815290600101906020018083116104aa57829003601f168201915b505050505093508280546104da90611825565b80601f016020809104026020016040519081016040528092919081815260200182805461050690611825565b80156105535780601f1061052857610100808354040283529160200191610553565b820191906000526020600020905b81548152906001019060200180831161053657829003601f168201915b5050505050925081805461056690611825565b80601f016020809104026020016040519081016040528092919081815260200182805461059290611825565b80156105df5780601f106105b4576101008083540402835291602001916105df565b820191906000526020600020905b8154815290600101906020018083116105c257829003601f168201915b505050505091508080546105f290611825565b80601f016020809104026020016040519081016040528092919081815260200182805461061e90611825565b801561066b5780601f106106405761010080835404028352916020019161066b565b820191906000526020600020905b81548152906001019060200180831161064e57829003601f168201915b50505050509050975097509750975097509750975050919395979092949650565b6000546001600160a01b031633146106b65760405162461bcd60e51b8152600401610122906117c7565b6001866040516106c69190611809565b90815260405190819003602001902080546106e090611825565b1590506107285760405162461bcd60e51b815260206004820152601660248201527553747564656e7420616c72656164792065786973747360501b6044820152606401610122565b6040518060e00160405280878152602001868152602001858152602001848152602001838152602001828152602001600067ffffffffffffffff81111561077157610771611236565b60405190808252806020026020018201604052801561079a578160200160208202803683370190505b508152506001876040516107ae9190611809565b908152604051908190036020019020815181906107cb90826118ae565b50602082015160018201906107e090826118ae565b50604082015160028201906107f590826118ae565b506060820151600382019061080a90826118ae565b506080820151600482019061081f90826118ae565b5060a0820151600582019061083490826118ae565b5060c082015180516108509160068401916020909101906111d6565b509050506040518060e00160405280878152602001868152602001858152602001848152602001838152602001828152602001600067ffffffffffffffff81111561089d5761089d611236565b6040519080825280602002602001820160405280156108c6578160200160208202803683370190505b508152506003826040516108da9190611809565b908152604051908190036020019020815181906108f790826118ae565b506020820151600182019061090c90826118ae565b506040820151600282019061092190826118ae565b506060820151600382019061093690826118ae565b506080820151600482019061094b90826118ae565b5060a0820151600582019061096090826118ae565b5060c0820151805161097c9160068401916020909101906111d6565b509050507ff64544973dc961a8042aac9bc37fbc1c50364ae50419e299c50cf20b134b6a3686866040516109b19291906119a3565b60405180910390a1505050505050565b606060006001836040516109d59190611809565b908152602001604051809103902060060190506000818054905067ffffffffffffffff811115610a0757610a07611236565b604051908082528060200260200182016040528015610a7857816020015b610a656040518060e00160405280600081526020016060815260200160608152602001606081526020016060815260200160608152602001606081525090565b815260200190600190039081610a255790505b50905060005b8254811015610e675760026000848381548110610a9d57610a9d6119d1565b906000526020600020015481526020019081526020016000206040518060e001604052908160008201548152602001600182018054610adb90611825565b80601f0160208091040260200160405190810160405280929190818152602001828054610b0790611825565b8015610b545780601f10610b2957610100808354040283529160200191610b54565b820191906000526020600020905b815481529060010190602001808311610b3757829003601f168201915b50505050508152602001600282018054610b6d90611825565b80601f0160208091040260200160405190810160405280929190818152602001828054610b9990611825565b8015610be65780601f10610bbb57610100808354040283529160200191610be6565b820191906000526020600020905b815481529060010190602001808311610bc957829003601f168201915b50505050508152602001600382018054610bff90611825565b80601f0160208091040260200160405190810160405280929190818152602001828054610c2b90611825565b8015610c785780601f10610c4d57610100808354040283529160200191610c78565b820191906000526020600020905b815481529060010190602001808311610c5b57829003601f168201915b50505050508152602001600482018054610c9190611825565b80601f0160208091040260200160405190810160405280929190818152602001828054610cbd90611825565b8015610d0a5780601f10610cdf57610100808354040283529160200191610d0a565b820191906000526020600020905b815481529060010190602001808311610ced57829003601f168201915b50505050508152602001600582018054610d2390611825565b80601f0160208091040260200160405190810160405280929190818152602001828054610d4f90611825565b8015610d9c5780601f10610d7157610100808354040283529160200191610d9c565b820191906000526020600020905b815481529060010190602001808311610d7f57829003601f168201915b50505050508152602001600682018054610db590611825565b80601f0160208091040260200160405190810160405280929190818152602001828054610de190611825565b8015610e2e5780601f10610e0357610100808354040283529160200191610e2e565b820191906000526020600020905b815481529060010190602001808311610e1157829003601f168201915b505050505081525050828281518110610e4957610e496119d1565b60200260200101819052508080610e5f906119e7565b915050610a7e565b509392505050565b6060806060806060806000600388604051610e8a9190611809565b90815260200160405180910390209050806000018160010182600201836003018460040185600601858054610ebe90611825565b80601f0160208091040260200160405190810160405280929190818152602001828054610eea90611825565b8015610f375780601f10610f0c57610100808354040283529160200191610f37565b820191906000526020600020905b815481529060010190602001808311610f1a57829003601f168201915b50505050509550848054610f4a90611825565b80601f0160208091040260200160405190810160405280929190818152602001828054610f7690611825565b8015610fc35780601f10610f9857610100808354040283529160200191610fc3565b820191906000526020600020905b815481529060010190602001808311610fa657829003601f168201915b50505050509450838054610fd690611825565b80601f016020809104026020016040519081016040528092919081815260200182805461100290611825565b801561104f5780601f106110245761010080835404028352916020019161104f565b820191906000526020600020905b81548152906001019060200180831161103257829003601f168201915b5050505050935082805461106290611825565b80601f016020809104026020016040519081016040528092919081815260200182805461108e90611825565b80156110db5780601f106110b0576101008083540402835291602001916110db565b820191906000526020600020905b8154815290600101906020018083116110be57829003601f168201915b505050505092508180546110ee90611825565b80601f016020809104026020016040519081016040528092919081815260200182805461111a90611825565b80156111675780601f1061113c57610100808354040283529160200191611167565b820191906000526020600020905b81548152906001019060200180831161114a57829003601f168201915b50505050509150808054806020026020016040519081016040528092919081815260200182805480156111b957602002820191906000526020600020905b8154815260200190600101908083116111a5575b505050505090509650965096509650965096505091939550919395565b828054828255906000526020600020908101928215611211579160200282015b828111156112115782518255916020019190600101906111f6565b5061121d929150611221565b5090565b5b8082111561121d5760008155600101611222565b634e487b7160e01b600052604160045260246000fd5b600082601f83011261125d57600080fd5b813567ffffffffffffffff8082111561127857611278611236565b604051601f8301601f19908116603f011681019082821181831017156112a0576112a0611236565b816040528381528660208588010111156112b957600080fd5b836020870160208301376000602085830101528094505050505092915050565b600080600080600080600080610100898b0312156112f657600080fd5b88359750602089013567ffffffffffffffff8082111561131557600080fd5b6113218c838d0161124c565b985060408b013591508082111561133757600080fd5b6113438c838d0161124c565b975060608b013591508082111561135957600080fd5b6113658c838d0161124c565b965060808b013591508082111561137b57600080fd5b6113878c838d0161124c565b955060a08b013591508082111561139d57600080fd5b6113a98c838d0161124c565b945060c08b01359150808211156113bf57600080fd5b6113cb8c838d0161124c565b935060e08b01359150808211156113e157600080fd5b506113ee8b828c0161124c565b9150509295985092959890939650565b60006020828403121561141057600080fd5b5035919050565b60005b8381101561143257818101518382015260200161141a565b50506000910152565b60008151808452611453816020860160208601611417565b601f01601f19169290920160200192915050565b87815260e06020820152600061148060e083018961143b565b8281036040840152611492818961143b565b905082810360608401526114a6818861143b565b905082810360808401526114ba818761143b565b905082810360a08401526114ce818661143b565b905082810360c08401526114e2818561143b565b9a9950505050505050505050565b60008060008060008060c0878903121561150957600080fd5b863567ffffffffffffffff8082111561152157600080fd5b61152d8a838b0161124c565b9750602089013591508082111561154357600080fd5b61154f8a838b0161124c565b9650604089013591508082111561156557600080fd5b6115718a838b0161124c565b9550606089013591508082111561158757600080fd5b6115938a838b0161124c565b945060808901359150808211156115a957600080fd5b6115b58a838b0161124c565b935060a08901359150808211156115cb57600080fd5b506115d889828a0161124c565b9150509295509295509295565b6000602082840312156115f757600080fd5b813567ffffffffffffffff81111561160e57600080fd5b61161a8482850161124c565b949350505050565b60006020808301818452808551808352604092508286019150828160051b87010184880160005b8381101561171157603f19898403018552815160e08151855288820151818a8701526116778287018261143b565b915050878201518582038987015261168f828261143b565b915050606080830151868303828801526116a9838261143b565b92505050608080830151868303828801526116c4838261143b565b9250505060a080830151868303828801526116df838261143b565b9250505060c080830151925085820381870152506116fd818361143b565b968901969450505090860190600101611649565b509098975050505050505050565b60c08152600061173260c083018961143b565b602083820381850152611745828a61143b565b91508382036040850152611759828961143b565b9150838203606085015261176d828861143b565b91508382036080850152611781828761143b565b84810360a0860152855180825282870193509082019060005b818110156117b65784518352938301939183019160010161179a565b50909b9a5050505050505050505050565b60208082526022908201527f4f6e6c79206f776e65722063616e20706572666f726d2074686973206163746960408201526137b760f11b606082015260800190565b6000825161181b818460208701611417565b9190910192915050565b600181811c9082168061183957607f821691505b60208210810361185957634e487b7160e01b600052602260045260246000fd5b50919050565b601f8211156118a957600081815260208120601f850160051c810160208610156118865750805b601f850160051c820191505b818110156118a557828155600101611892565b5050505b505050565b815167ffffffffffffffff8111156118c8576118c8611236565b6118dc816118d68454611825565b8461185f565b602080601f83116001811461191157600084156118f95750858301515b600019600386901b1c1916600185901b1785556118a5565b600085815260208120601f198616915b8281101561194057888601518255948401946001909101908401611921565b508582101561195e5787850151600019600388901b60f8161c191681555b5050505050600190811b01905550565b838152606060208201526000611987606083018561143b565b8281036040840152611999818561143b565b9695505050505050565b6040815260006119b6604083018561143b565b82810360208401526119c8818561143b565b95945050505050565b634e487b7160e01b600052603260045260246000fd5b600060018201611a0757634e487b7160e01b600052601160045260246000fd5b506001019056fea2646970667358221220a41d73d8163ceaf4e9edcf5c133057c70d68a96d1ca015e6d23cdd8972751fbd64736f6c63430008130033",
    "sourcePath": "d:/final/NCKH/BlockchainCertificate.sol",
    "compiler": {
        "name": "solc",
        "version": "0.8.19+commit.7dd6d404"
    },
    "functionHashes": {
        "addCertificate(uint256,string,string,string,string,string,string,string)": "388e6dca",
        "addStudent(string,string,string,string,string,string)": "a11d211b",
        "getCertificateById(uint256)": "9d735caf",
        "getStudentByEmail(string)": "cc1b3db9",
        "getStudentCertificates(string)": "ade3de2c"
    },
    "gasEstimates": {
        "creation": {
            "codeDepositCost": "1344800",
            "executionCost": "25638",
            "totalCost": "1370438"
        },
        "external": {
            "addCertificate(uint256,string,string,string,string,string,string,string)": "infinite",
            "addStudent(string,string,string,string,string,string)": "infinite",
            "getCertificateById(uint256)": "infinite",
            "getStudentByEmail(string)": "infinite",
            "getStudentCertificates(string)": "infinite"
        }
    }
}